{
  "contractName": "Claims",
  "abi": [
    {
      "constant": true,
      "inputs": [
        {
          "name": "",
          "type": "address"
        }
      ],
      "name": "adjusters",
      "outputs": [
        {
          "name": "",
          "type": "bool"
        }
      ],
      "payable": false,
      "stateMutability": "view",
      "type": "function"
    },
    {
      "constant": true,
      "inputs": [
        {
          "name": "",
          "type": "address"
        }
      ],
      "name": "admins",
      "outputs": [
        {
          "name": "",
          "type": "bool"
        }
      ],
      "payable": false,
      "stateMutability": "view",
      "type": "function"
    },
    {
      "constant": true,
      "inputs": [
        {
          "name": "",
          "type": "address"
        }
      ],
      "name": "policyHolders",
      "outputs": [
        {
          "name": "",
          "type": "bool"
        }
      ],
      "payable": false,
      "stateMutability": "view",
      "type": "function"
    },
    {
      "constant": false,
      "inputs": [],
      "name": "renounceOwnership",
      "outputs": [],
      "payable": false,
      "stateMutability": "nonpayable",
      "type": "function"
    },
    {
      "constant": false,
      "inputs": [],
      "name": "destroy",
      "outputs": [],
      "payable": false,
      "stateMutability": "nonpayable",
      "type": "function"
    },
    {
      "constant": true,
      "inputs": [],
      "name": "claimCount",
      "outputs": [
        {
          "name": "",
          "type": "uint256"
        }
      ],
      "payable": false,
      "stateMutability": "view",
      "type": "function"
    },
    {
      "constant": true,
      "inputs": [],
      "name": "owner",
      "outputs": [
        {
          "name": "",
          "type": "address"
        }
      ],
      "payable": false,
      "stateMutability": "view",
      "type": "function"
    },
    {
      "constant": true,
      "inputs": [
        {
          "name": "",
          "type": "uint256"
        }
      ],
      "name": "claims",
      "outputs": [
        {
          "name": "number",
          "type": "uint256"
        },
        {
          "name": "state",
          "type": "uint8"
        },
        {
          "name": "policyHolder",
          "type": "address"
        },
        {
          "name": "appraiser",
          "type": "address"
        },
        {
          "name": "adjuster",
          "type": "address"
        },
        {
          "name": "firstName",
          "type": "string"
        },
        {
          "name": "policyNumber",
          "type": "uint256"
        },
        {
          "name": "appraisedValue",
          "type": "uint256"
        },
        {
          "name": "approvedValue",
          "type": "uint256"
        }
      ],
      "payable": false,
      "stateMutability": "view",
      "type": "function"
    },
    {
      "constant": true,
      "inputs": [
        {
          "name": "",
          "type": "address"
        }
      ],
      "name": "registered",
      "outputs": [
        {
          "name": "",
          "type": "bool"
        }
      ],
      "payable": false,
      "stateMutability": "view",
      "type": "function"
    },
    {
      "constant": true,
      "inputs": [
        {
          "name": "",
          "type": "address"
        }
      ],
      "name": "appraisers",
      "outputs": [
        {
          "name": "",
          "type": "bool"
        }
      ],
      "payable": false,
      "stateMutability": "view",
      "type": "function"
    },
    {
      "constant": false,
      "inputs": [
        {
          "name": "_newOwner",
          "type": "address"
        }
      ],
      "name": "transferOwnership",
      "outputs": [],
      "payable": false,
      "stateMutability": "nonpayable",
      "type": "function"
    },
    {
      "constant": false,
      "inputs": [
        {
          "name": "_recipient",
          "type": "address"
        }
      ],
      "name": "destroyAndSend",
      "outputs": [],
      "payable": false,
      "stateMutability": "nonpayable",
      "type": "function"
    },
    {
      "inputs": [],
      "payable": false,
      "stateMutability": "nonpayable",
      "type": "constructor"
    },
    {
      "payable": false,
      "stateMutability": "nonpayable",
      "type": "fallback"
    },
    {
      "anonymous": false,
      "inputs": [
        {
          "indexed": false,
          "name": "accountAddress",
          "type": "address"
        }
      ],
      "name": "LogRegistered",
      "type": "event"
    },
    {
      "anonymous": false,
      "inputs": [
        {
          "indexed": false,
          "name": "policyHolderAddress",
          "type": "address"
        }
      ],
      "name": "LogRegisteredPolicyHolder",
      "type": "event"
    },
    {
      "anonymous": false,
      "inputs": [
        {
          "indexed": false,
          "name": "appraiserAddress",
          "type": "address"
        }
      ],
      "name": "LogRegisteredAppraiser",
      "type": "event"
    },
    {
      "anonymous": false,
      "inputs": [
        {
          "indexed": false,
          "name": "adjusterAddress",
          "type": "address"
        }
      ],
      "name": "LogRegisteredAdjuster",
      "type": "event"
    },
    {
      "anonymous": false,
      "inputs": [
        {
          "indexed": true,
          "name": "previousOwner",
          "type": "address"
        }
      ],
      "name": "OwnershipRenounced",
      "type": "event"
    },
    {
      "anonymous": false,
      "inputs": [
        {
          "indexed": true,
          "name": "previousOwner",
          "type": "address"
        },
        {
          "indexed": true,
          "name": "newOwner",
          "type": "address"
        }
      ],
      "name": "OwnershipTransferred",
      "type": "event"
    },
    {
      "constant": true,
      "inputs": [],
      "name": "getOwner",
      "outputs": [
        {
          "name": "",
          "type": "address"
        }
      ],
      "payable": false,
      "stateMutability": "view",
      "type": "function"
    },
    {
      "constant": true,
      "inputs": [],
      "name": "getOwnerName",
      "outputs": [
        {
          "name": "",
          "type": "string"
        }
      ],
      "payable": false,
      "stateMutability": "pure",
      "type": "function"
    },
    {
      "constant": true,
      "inputs": [],
      "name": "getClaimCount",
      "outputs": [
        {
          "name": "",
          "type": "uint256"
        }
      ],
      "payable": false,
      "stateMutability": "view",
      "type": "function"
    },
    {
      "constant": false,
      "inputs": [],
      "name": "incrementClaimCount",
      "outputs": [],
      "payable": false,
      "stateMutability": "nonpayable",
      "type": "function"
    },
    {
      "constant": false,
      "inputs": [],
      "name": "register",
      "outputs": [
        {
          "name": "",
          "type": "bool"
        }
      ],
      "payable": false,
      "stateMutability": "nonpayable",
      "type": "function"
    },
    {
      "constant": false,
      "inputs": [],
      "name": "registerPolicyHolder",
      "outputs": [
        {
          "name": "",
          "type": "bool"
        }
      ],
      "payable": false,
      "stateMutability": "nonpayable",
      "type": "function"
    },
    {
      "constant": false,
      "inputs": [],
      "name": "registerAppraiser",
      "outputs": [
        {
          "name": "",
          "type": "bool"
        }
      ],
      "payable": false,
      "stateMutability": "nonpayable",
      "type": "function"
    },
    {
      "constant": false,
      "inputs": [],
      "name": "registerAdjuster",
      "outputs": [
        {
          "name": "",
          "type": "bool"
        }
      ],
      "payable": false,
      "stateMutability": "nonpayable",
      "type": "function"
    },
    {
      "constant": false,
      "inputs": [
        {
          "name": "firstName",
          "type": "string"
        }
      ],
      "name": "openClaim",
      "outputs": [
        {
          "name": "",
          "type": "uint256"
        }
      ],
      "payable": false,
      "stateMutability": "nonpayable",
      "type": "function"
    },
    {
      "constant": false,
      "inputs": [
        {
          "name": "claimNumber",
          "type": "uint256"
        },
        {
          "name": "appraisedValue",
          "type": "uint256"
        }
      ],
      "name": "appraiseClaim",
      "outputs": [
        {
          "name": "",
          "type": "uint256"
        }
      ],
      "payable": false,
      "stateMutability": "nonpayable",
      "type": "function"
    },
    {
      "constant": false,
      "inputs": [
        {
          "name": "claimNumber",
          "type": "uint256"
        },
        {
          "name": "approvedValue",
          "type": "uint256"
        }
      ],
      "name": "approveClaim",
      "outputs": [
        {
          "name": "",
          "type": "uint256"
        }
      ],
      "payable": false,
      "stateMutability": "nonpayable",
      "type": "function"
    },
    {
      "constant": true,
      "inputs": [
        {
          "name": "claimNumber",
          "type": "uint256"
        }
      ],
      "name": "getClaim",
      "outputs": [
        {
          "name": "",
          "type": "uint256"
        },
        {
          "name": "",
          "type": "uint256"
        },
        {
          "name": "",
          "type": "uint256"
        },
        {
          "name": "",
          "type": "uint256"
        }
      ],
      "payable": false,
      "stateMutability": "view",
      "type": "function"
    }
  ],
  "bytecode": "0x608060405234801561001057600080fd5b50336000806101000a81548173ffffffffffffffffffffffffffffffffffffffff021916908373ffffffffffffffffffffffffffffffffffffffff160217905550336000806101000a81548173ffffffffffffffffffffffffffffffffffffffff021916908373ffffffffffffffffffffffffffffffffffffffff1602179055506000600681905550611a39806100a86000396000f30060806040526004361061013e576000357c0100000000000000000000000000000000000000000000000000000000900463ffffffff168063145ef6e9146101505780631aa3a008146101e05780632952ebef1461020f578063429b62e51461026a5780635aef2447146102c55780635e337f1f1461031b57806370b68a2a1461034a578063715018a6146103a55780637fbe658c146103bc57806383197ef01461040757806383f95f131461041e578063889f958f1461049b578063893d20e8146104e65780638da4d3c91461053d5780638da5cb5b14610568578063a888c2cd146105bf578063b2dd5c071461072f578063ba4611d91461078a578063c7c8f86f146107b5578063d643315c14610810578063e5c01a6914610827578063e647ccc414610856578063f2fde38b14610885578063f5074f41146108c8575b34801561014a57600080fd5b50600080fd5b34801561015c57600080fd5b5061016561090b565b6040518080602001828103825283818151815260200191508051906020019080838360005b838110156101a557808201518184015260208101905061018a565b50505050905090810190601f1680156101d25780820380516001836020036101000a031916815260200191505b509250505060405180910390f35b3480156101ec57600080fd5b506101f561094d565b604051808215151515815260200191505060405180910390f35b34801561021b57600080fd5b50610250600480360381019080803573ffffffffffffffffffffffffffffffffffffffff169060200190929190505050610a10565b604051808215151515815260200191505060405180910390f35b34801561027657600080fd5b506102ab600480360381019080803573ffffffffffffffffffffffffffffffffffffffff169060200190929190505050610a30565b604051808215151515815260200191505060405180910390f35b3480156102d157600080fd5b506102f060048036038101908080359060200190929190505050610a50565b6040518085815260200184815260200183815260200182815260200194505050505060405180910390f35b34801561032757600080fd5b50610330610c9e565b604051808215151515815260200191505060405180910390f35b34801561035657600080fd5b5061038b600480360381019080803573ffffffffffffffffffffffffffffffffffffffff169060200190929190505050610d62565b604051808215151515815260200191505060405180910390f35b3480156103b157600080fd5b506103ba610d82565b005b3480156103c857600080fd5b506103f16004803603810190808035906020019092919080359060200190929190505050610e84565b6040518082815260200191505060405180910390f35b34801561041357600080fd5b5061041c61101f565b005b34801561042a57600080fd5b50610485600480360381019080803590602001908201803590602001908080601f01602080910402602001604051908101604052809392919081815260200183838082843782019150505050505091929192905050506110b4565b6040518082815260200191505060405180910390f35b3480156104a757600080fd5b506104d06004803603810190808035906020019092919080359060200190929190505050611209565b6040518082815260200191505060405180910390f35b3480156104f257600080fd5b506104fb61136c565b604051808273ffffffffffffffffffffffffffffffffffffffff1673ffffffffffffffffffffffffffffffffffffffff16815260200191505060405180910390f35b34801561054957600080fd5b50610552611395565b6040518082815260200191505060405180910390f35b34801561057457600080fd5b5061057d61139b565b604051808273ffffffffffffffffffffffffffffffffffffffff1673ffffffffffffffffffffffffffffffffffffffff16815260200191505060405180910390f35b3480156105cb57600080fd5b506105ea600480360381019080803590602001909291905050506113c0565b604051808a815260200189600381111561060057fe5b60ff1681526020018873ffffffffffffffffffffffffffffffffffffffff1673ffffffffffffffffffffffffffffffffffffffff1681526020018773ffffffffffffffffffffffffffffffffffffffff1673ffffffffffffffffffffffffffffffffffffffff1681526020018673ffffffffffffffffffffffffffffffffffffffff1673ffffffffffffffffffffffffffffffffffffffff16815260200180602001858152602001848152602001838152602001828103825286818151815260200191508051906020019080838360005b838110156106ec5780820151818401526020810190506106d1565b50505050905090810190601f1680156107195780820380516001836020036101000a031916815260200191505b509a505050505050505050505060405180910390f35b34801561073b57600080fd5b50610770600480360381019080803573ffffffffffffffffffffffffffffffffffffffff169060200190929190505050611513565b604051808215151515815260200191505060405180910390f35b34801561079657600080fd5b5061079f611533565b6040518082815260200191505060405180910390f35b3480156107c157600080fd5b506107f6600480360381019080803573ffffffffffffffffffffffffffffffffffffffff16906020019092919050505061153d565b604051808215151515815260200191505060405180910390f35b34801561081c57600080fd5b5061082561155d565b005b34801561083357600080fd5b5061083c611571565b604051808215151515815260200191505060405180910390f35b34801561086257600080fd5b5061086b611635565b604051808215151515815260200191505060405180910390f35b34801561089157600080fd5b506108c6600480360381019080803573ffffffffffffffffffffffffffffffffffffffff1690602001909291905050506116f9565b005b3480156108d457600080fd5b50610909600480360381019080803573ffffffffffffffffffffffffffffffffffffffff169060200190929190505050611760565b005b6060806040805190810160405280600681526020017f566963746f72000000000000000000000000000000000000000000000000000081525090508091505090565b600060018060003373ffffffffffffffffffffffffffffffffffffffff1673ffffffffffffffffffffffffffffffffffffffff16815260200190815260200160002060006101000a81548160ff0219169083151502179055507fa77ea88dd64c578cd1c08a9ff1e48c25002394fc8aeb7c19d9541cf7e380b24233604051808273ffffffffffffffffffffffffffffffffffffffff1673ffffffffffffffffffffffffffffffffffffffff16815260200191505060405180910390a16001905090565b60056020528060005260406000206000915054906101000a900460ff1681565b60026020528060005260406000206000915054906101000a900460ff1681565b600080600080610a5e6118ce565b600760008781526020019081526020016000206101206040519081016040529081600082015481526020016001820160009054906101000a900460ff166003811115610aa657fe5b6003811115610ab157fe5b81526020016001820160019054906101000a900473ffffffffffffffffffffffffffffffffffffffff1673ffffffffffffffffffffffffffffffffffffffff1673ffffffffffffffffffffffffffffffffffffffff1681526020016002820160009054906101000a900473ffffffffffffffffffffffffffffffffffffffff1673ffffffffffffffffffffffffffffffffffffffff1673ffffffffffffffffffffffffffffffffffffffff1681526020016003820160009054906101000a900473ffffffffffffffffffffffffffffffffffffffff1673ffffffffffffffffffffffffffffffffffffffff1673ffffffffffffffffffffffffffffffffffffffff168152602001600482018054600181600116156101000203166002900480601f016020809104026020016040519081016040528092919081815260200182805460018160011615610100020316600290048015610c505780601f10610c2557610100808354040283529160200191610c50565b820191906000526020600020905b815481529060010190602001808311610c3357829003601f168201915b505050505081526020016005820154815260200160068201548152602001600782015481525050905080600001518160c001518260e001518361010001519450945094509450509193509193565b60006001600560003373ffffffffffffffffffffffffffffffffffffffff1673ffffffffffffffffffffffffffffffffffffffff16815260200190815260200160002060006101000a81548160ff0219169083151502179055507f661a682023ab787fe8a95a4ee9c2b3f359e23de084dc489e87396efe2704e13833604051808273ffffffffffffffffffffffffffffffffffffffff1673ffffffffffffffffffffffffffffffffffffffff16815260200191505060405180910390a16001905090565b60036020528060005260406000206000915054906101000a900460ff1681565b6000809054906101000a900473ffffffffffffffffffffffffffffffffffffffff1673ffffffffffffffffffffffffffffffffffffffff163373ffffffffffffffffffffffffffffffffffffffff16141515610ddd57600080fd5b6000809054906101000a900473ffffffffffffffffffffffffffffffffffffffff1673ffffffffffffffffffffffffffffffffffffffff167ff8df31144d9c2f0f6b59d69b8b98abd5459d07f2742c4df920b25aae33c6482060405160405180910390a260008060006101000a81548173ffffffffffffffffffffffffffffffffffffffff021916908373ffffffffffffffffffffffffffffffffffffffff160217905550565b600060011515600560003373ffffffffffffffffffffffffffffffffffffffff1673ffffffffffffffffffffffffffffffffffffffff16815260200190815260200160002060009054906101000a900460ff161515141515610ee557600080fd5b8260016003811115610ef357fe5b6007600083815260200190815260200160002060010160009054906101000a900460ff166003811115610f2257fe5b141515610f2e57600080fd5b60026007600086815260200190815260200160002060010160006101000a81548160ff02191690836003811115610f6157fe5b0217905550336007600086815260200190815260200160002060020160006101000a81548173ffffffffffffffffffffffffffffffffffffffff021916908373ffffffffffffffffffffffffffffffffffffffff16021790555082600760008681526020019081526020016000206007018190555060036007600086815260200190815260200160002060010160006101000a81548160ff0219169083600381111561100957fe5b0217905550611016611533565b91505092915050565b6000809054906101000a900473ffffffffffffffffffffffffffffffffffffffff1673ffffffffffffffffffffffffffffffffffffffff163373ffffffffffffffffffffffffffffffffffffffff1614151561107a57600080fd5b6000809054906101000a900473ffffffffffffffffffffffffffffffffffffffff1673ffffffffffffffffffffffffffffffffffffffff16ff5b600060011515600360003373ffffffffffffffffffffffffffffffffffffffff1673ffffffffffffffffffffffffffffffffffffffff16815260200190815260200160002060009054906101000a900460ff16151514151561111557600080fd5b61111d61155d565b600060076000600654815260200190815260200160002060010160006101000a81548160ff0219169083600381111561115257fe5b0217905550600654600760006006548152602001908152602001600020600001819055503360076000600654815260200190815260200160002060010160016101000a81548173ffffffffffffffffffffffffffffffffffffffff021916908373ffffffffffffffffffffffffffffffffffffffff1602179055508160076000600654815260200190815260200160002060040190805190602001906111f9929190611968565b50611202611533565b9050919050565b600060011515600460003373ffffffffffffffffffffffffffffffffffffffff1673ffffffffffffffffffffffffffffffffffffffff16815260200190815260200160002060009054906101000a900460ff16151514151561126a57600080fd5b826000600381111561127857fe5b6007600083815260200190815260200160002060010160009054906101000a900460ff1660038111156112a757fe5b1415156112b357600080fd5b60016007600086815260200190815260200160002060010160006101000a81548160ff021916908360038111156112e657fe5b0217905550336007600086815260200190815260200160002060020160006101000a81548173ffffffffffffffffffffffffffffffffffffffff021916908373ffffffffffffffffffffffffffffffffffffffff160217905550826007600086815260200190815260200160002060060181905550611363611533565b91505092915050565b60008060009054906101000a900473ffffffffffffffffffffffffffffffffffffffff16905090565b60065481565b6000809054906101000a900473ffffffffffffffffffffffffffffffffffffffff1681565b60076020528060005260406000206000915090508060000154908060010160009054906101000a900460ff16908060010160019054906101000a900473ffffffffffffffffffffffffffffffffffffffff16908060020160009054906101000a900473ffffffffffffffffffffffffffffffffffffffff16908060030160009054906101000a900473ffffffffffffffffffffffffffffffffffffffff1690806004018054600181600116156101000203166002900480601f0160208091040260200160405190810160405280929190818152602001828054600181600116156101000203166002900480156114f75780601f106114cc576101008083540402835291602001916114f7565b820191906000526020600020905b8154815290600101906020018083116114da57829003601f168201915b5050505050908060050154908060060154908060070154905089565b60016020528060005260406000206000915054906101000a900460ff1681565b6000600654905090565b60046020528060005260406000206000915054906101000a900460ff1681565b600660008154809291906001019190505550565b60006001600360003373ffffffffffffffffffffffffffffffffffffffff1673ffffffffffffffffffffffffffffffffffffffff16815260200190815260200160002060006101000a81548160ff0219169083151502179055507f975237da2ee2c8c7d456d6d65e1f896654a879d34b55f190a0f75a20ba2a5b2833604051808273ffffffffffffffffffffffffffffffffffffffff1673ffffffffffffffffffffffffffffffffffffffff16815260200191505060405180910390a16001905090565b60006001600460003373ffffffffffffffffffffffffffffffffffffffff1673ffffffffffffffffffffffffffffffffffffffff16815260200190815260200160002060006101000a81548160ff0219169083151502179055507fba3eb2e65942510f48215a0d91a13a07f021d6166506f3411c1ffcbfe299c40833604051808273ffffffffffffffffffffffffffffffffffffffff1673ffffffffffffffffffffffffffffffffffffffff16815260200191505060405180910390a16001905090565b6000809054906101000a900473ffffffffffffffffffffffffffffffffffffffff1673ffffffffffffffffffffffffffffffffffffffff163373ffffffffffffffffffffffffffffffffffffffff1614151561175457600080fd5b61175d816117d4565b50565b6000809054906101000a900473ffffffffffffffffffffffffffffffffffffffff1673ffffffffffffffffffffffffffffffffffffffff163373ffffffffffffffffffffffffffffffffffffffff161415156117bb57600080fd5b8073ffffffffffffffffffffffffffffffffffffffff16ff5b600073ffffffffffffffffffffffffffffffffffffffff168173ffffffffffffffffffffffffffffffffffffffff161415151561181057600080fd5b8073ffffffffffffffffffffffffffffffffffffffff166000809054906101000a900473ffffffffffffffffffffffffffffffffffffffff1673ffffffffffffffffffffffffffffffffffffffff167f8be0079c531659141344cd1fd0a4f28419497f9722a3daafe3b4186f6b6457e060405160405180910390a3806000806101000a81548173ffffffffffffffffffffffffffffffffffffffff021916908373ffffffffffffffffffffffffffffffffffffffff16021790555050565b6101206040519081016040528060008152602001600060038111156118ef57fe5b8152602001600073ffffffffffffffffffffffffffffffffffffffff168152602001600073ffffffffffffffffffffffffffffffffffffffff168152602001600073ffffffffffffffffffffffffffffffffffffffff168152602001606081526020016000815260200160008152602001600081525090565b828054600181600116156101000203166002900490600052602060002090601f016020900481019282601f106119a957805160ff19168380011785556119d7565b828001600101855582156119d7579182015b828111156119d65782518255916020019190600101906119bb565b5b5090506119e491906119e8565b5090565b611a0a91905b80821115611a065760008160009055506001016119ee565b5090565b905600a165627a7a72305820c07ebe87e62a1b9f0eb8da0ace5f9d4f1c61284b8b9b21ec4a972f6f58a656b30029",
  "source": "pragma solidity ^0.4.24;\n\nimport \"openzeppelin-solidity/contracts/lifecycle/Destructible.sol\";\n\n\n/// @title Insurance Claims BlockChain\n/// @author Victor Van Herk\n/// @notice You can use this contract for only basic claims processing\n/// @dev Function calls are implemented without side effects\ncontract Claims is Destructible {\n\n    \n    // mapping of required user type/addresses\n    mapping (address => bool) public registered;\n    mapping (address => bool) public admins;\n    mapping (address => bool) public policyHolders;\n    mapping (address => bool) public appraisers;\n    mapping (address => bool) public adjusters;\n\n    // Contract Owner\n    //address public owner;\n\n    // Claim Count \n    uint public claimCount;\n\n    // Claim State\n    enum ClaimState {open, appraised, approved, closed}\n\n    // Claim Info\n    struct Claim {\n        uint number;\n        ClaimState state;\n        address policyHolder;\n        address appraiser;\n        address adjuster;\n        string firstName;\n        uint policyNumber;\n        uint appraisedValue;\n        uint approvedValue;\n\n    }\n\n    // Mapping of claims\n    mapping(uint => Claim) public claims;\n\n\n    // Verify address is policy holder    \n    modifier verifyPolicyHolder \n    { \n      require (policyHolders[msg.sender] == true); \n      _;\n    }\n\n    // Verify address is appraiser   \n    modifier verifyAppraiser \n    { \n      require (appraisers[msg.sender] == true); \n      _;\n    }\n\n    // Verify address is claims adjuster    \n    modifier verifyAdjuster \n    { \n      require (adjusters[msg.sender] == true); \n      _;\n    }\n\n    // Verify claim state is open  \n    modifier claimOpen(uint claimNumber) \n    { \n      require (claims[claimNumber].state == ClaimState.open); \n      _;\n    }\n\n    // Verify claim state is open  \n    modifier claimAppraised(uint claimNumber) \n    { \n      require (claims[claimNumber].state == ClaimState.appraised); \n      _;\n    }\n\n    // Events - publicize actions to external listeners\n    \n    // Log registration events\n    event LogRegistered(address accountAddress);\n    event LogRegisteredPolicyHolder(address policyHolderAddress);\n    event LogRegisteredAppraiser(address appraiserAddress);\n    event LogRegisteredAdjuster(address adjusterAddress);\n\n \n    /// @author Victor Van Herk\n    /// @notice Constructor of claims contract\n    /// @dev claim count set to zero\n    constructor() public {\n        // set owner of contract\n        owner = msg.sender;\n        claimCount = 0;\n    }\n   \n    /// @author Victor Van Herk\n    /// @notice Get owner of contract\n    /// @return owner The address of contract owner\n    function getOwner() public view returns(address) {\n        return owner;\n    }\n\n    /// @author Victor Van Herk\n    /// @notice test routine\n    /// @return string\n    function getOwnerName() public pure returns(string) {\n        string memory ownerName = \"Victor\";\n        return ownerName;\n    }\n\n    /// @author Victor Van Herk\n    /// @notice Get claim count\n    /// @return claimcount The count of claims\n    function getClaimCount() public view returns(uint) {\n        return claimCount;\n    }\n\n    /// @author Victor Van Herk\n    /// @notice Increment the claim count\n    /// @dev May want to have max claims set here if required\n    function incrementClaimCount() public {\n        claimCount++;\n    }\n\n\n    /// @author Victor Van Herk\n    /// @notice Register\n    /// @dev test function only\n    /// @return bool\n    function register() public returns (bool){\n        registered[msg.sender] = true;\n        emit LogRegistered(msg.sender);\n        return true;\n    }\n\n    // Role related functions\n\n    /// @author Victor Van Herk\n    /// @notice Register a policy holder \n    /// @dev Emits LogRegisteredPolicyHolder event\n    /// @return The users registered status\n    function registerPolicyHolder() public returns (bool){\n        policyHolders[msg.sender] = true;\n        emit LogRegisteredPolicyHolder(msg.sender);\n        return true;\n    }\n\n\n    /// @author Victor Van Herk\n    /// @notice Register an appraiser\n    /// @dev Emits LogRegisteredAppraiser event\n    /// @return The users registered status\n    function registerAppraiser() public returns (bool){\n        appraisers[msg.sender] = true;\n        emit LogRegisteredAppraiser(msg.sender);\n        return true;\n    }\n\n\n    /// @author Victor Van Herk\n    /// @notice Register a claims adjuster\n    /// @dev Emits LogRegisteredAdjuster event\n    /// @return The users registered status\n    function registerAdjuster() public returns (bool){\n        adjusters[msg.sender] = true;\n        emit LogRegisteredAdjuster(msg.sender);\n        return true;\n    }\n\n\n    // Claims processing related functions\n\n\n    /// @author Victor Van Herk\n    /// @notice Open a new claim\n    /// @return claimNumber The claim number\n    function openClaim(string firstName) public verifyPolicyHolder returns(uint) {\n\n        incrementClaimCount();\n        claims[claimCount].state = ClaimState.open;\n        claims[claimCount].number = claimCount;\n        claims[claimCount].policyHolder = msg.sender;\n        claims[claimCount].firstName = firstName;\n        return getClaimCount();\n    }\n\n\n    /// @author Victor Van Herk\n    /// @notice Appraise value of an existing claim\n    /// @param claimNumber The claim number\n    /// @param appraisedValue The appraised value\n    /// @return claimNumber The claim number\n    function appraiseClaim(uint claimNumber, uint appraisedValue) public verifyAppraiser claimOpen(claimNumber) returns(uint) {\n\n        claims[claimNumber].state = ClaimState.appraised;\n        claims[claimNumber].appraiser = msg.sender;\n        claims[claimNumber].appraisedValue = appraisedValue;\n        return getClaimCount();\n    }\n\n    /// @author Victor Van Herk\n    /// @notice Approve value of an appraised claim\n    /// @param claimNumber The claim number\n    /// @param approvedValue The approved value\n    /// @return claimNumber The claim number\n    function approveClaim(uint claimNumber, uint approvedValue) public verifyAdjuster claimAppraised(claimNumber) returns(uint) {\n\n        claims[claimNumber].state = ClaimState.approved;\n        claims[claimNumber].appraiser = msg.sender;\n        claims[claimNumber].approvedValue = approvedValue;\n        claims[claimNumber].state = ClaimState.closed;\n        // vvh todo claims[claimNumber].policyHolder.transfer(msg.value);\n        return getClaimCount();\n    }\n\n\n\n    /// @author Victor Van Herk\n    /// @notice Get claim information\n    /// @param claimNumber The claim number\n    /// @return claim The claim information\n    function getClaim(uint claimNumber) public view \n                returns(uint, uint, uint, uint) {\n\n        Claim memory claim = claims[claimNumber];\n        return (claim.number, claim.policyNumber, claim.appraisedValue, claim.approvedValue);\n    }\n\n\n\n    // Fallback function - Called if other functions don't match call or\n    // sent ether without data\n    // Typically, called when invalid data is sent\n    // Added so ether sent to this contract is reverted if the contract fails\n    // otherwise, the sender's money is transferred to contract\n    function() public {\n        revert();\n    }\n}\n",
  "sourcePath": "C:\\Users\\SteevenRaj\\OneDrive - ZapCom Solutions Pvt. ltd\\Desktop\\New folder (3)\\insurance_claims_blockchain-master\\contracts\\Claims.sol",
  "compiler": {
    "name": "solc",
    "version": "0.4.24+commit.e67f0147.Emscripten.clang"
  },
  "schemaVersion": "3.4.16",
  "updatedAt": "2025-01-23T07:07:00.833Z",
  "networkType": "ethereum",
  "devdoc": {
    "author": "Victor Van Herk",
    "methods": {
      "appraiseClaim(uint256,uint256)": {
        "author": "Victor Van Herk",
        "params": {
          "appraisedValue": "The appraised value",
          "claimNumber": "The claim number"
        },
        "return": "claimNumber The claim number"
      },
      "approveClaim(uint256,uint256)": {
        "author": "Victor Van Herk",
        "params": {
          "approvedValue": "The approved value",
          "claimNumber": "The claim number"
        },
        "return": "claimNumber The claim number"
      },
      "destroy()": {
        "details": "Transfers the current balance to the owner and terminates the contract."
      },
      "getClaim(uint256)": {
        "author": "Victor Van Herk",
        "params": {
          "claimNumber": "The claim number"
        },
        "return": "claim The claim information"
      },
      "getClaimCount()": {
        "author": "Victor Van Herk",
        "return": "claimcount The count of claims"
      },
      "getOwner()": {
        "author": "Victor Van Herk",
        "return": "owner The address of contract owner"
      },
      "getOwnerName()": {
        "author": "Victor Van Herk",
        "return": "string"
      },
      "incrementClaimCount()": {
        "author": "Victor Van Herk",
        "details": "May want to have max claims set here if required"
      },
      "openClaim(string)": {
        "author": "Victor Van Herk",
        "return": "claimNumber The claim number"
      },
      "register()": {
        "author": "Victor Van Herk",
        "details": "test function only",
        "return": "bool"
      },
      "registerAdjuster()": {
        "author": "Victor Van Herk",
        "details": "Emits LogRegisteredAdjuster event",
        "return": "The users registered status"
      },
      "registerAppraiser()": {
        "author": "Victor Van Herk",
        "details": "Emits LogRegisteredAppraiser event",
        "return": "The users registered status"
      },
      "registerPolicyHolder()": {
        "author": "Victor Van Herk",
        "details": "Emits LogRegisteredPolicyHolder event",
        "return": "The users registered status"
      },
      "renounceOwnership()": {
        "details": "Allows the current owner to relinquish control of the contract."
      },
      "transferOwnership(address)": {
        "details": "Allows the current owner to transfer control of the contract to a newOwner.",
        "params": {
          "_newOwner": "The address to transfer ownership to."
        }
      }
    },
    "title": "Insurance Claims BlockChain"
  },
  "userdoc": {
    "methods": {
      "appraiseClaim(uint256,uint256)": {
        "notice": "Appraise value of an existing claim"
      },
      "approveClaim(uint256,uint256)": {
        "notice": "Approve value of an appraised claim"
      },
      "getClaim(uint256)": {
        "notice": "Get claim information"
      },
      "getClaimCount()": {
        "notice": "Get claim count"
      },
      "getOwner()": {
        "notice": "Get owner of contract"
      },
      "getOwnerName()": {
        "notice": "test routine"
      },
      "incrementClaimCount()": {
        "notice": "Increment the claim count"
      },
      "openClaim(string)": {
        "notice": "Open a new claim"
      },
      "register()": {
        "notice": "Register"
      },
      "registerAdjuster()": {
        "notice": "Register a claims adjuster"
      },
      "registerAppraiser()": {
        "notice": "Register an appraiser"
      },
      "registerPolicyHolder()": {
        "notice": "Register a policy holder "
      },
      "renounceOwnership()": {
        "notice": "Renouncing to ownership will leave the contract without an owner. It will not be possible to call the functions with the `onlyOwner` modifier anymore."
      }
    }
  }
}